{
  "_format": "hh-sol-artifact-1",
  "contractName": "SubscriptionToken",
  "sourceName": "contracts/SubscriptionToken.sol",
  "abi": [
    {
      "inputs": [],
      "stateMutability": "nonpayable",
      "type": "constructor"
    },
    {
      "anonymous": false,
      "inputs": [
        {
          "indexed": false,
          "internalType": "uint256",
          "name": "platformId",
          "type": "uint256"
        },
        {
          "indexed": false,
          "internalType": "uint256",
          "name": "numSubscribers",
          "type": "uint256"
        },
        {
          "indexed": false,
          "internalType": "uint256",
          "name": "costPerSubscriber",
          "type": "uint256"
        }
      ],
      "name": "SubscriptionUpdate",
      "type": "event"
    },
    {
      "inputs": [
        {
          "internalType": "address",
          "name": "user",
          "type": "address"
        },
        {
          "internalType": "uint256",
          "name": "serviceId",
          "type": "uint256"
        }
      ],
      "name": "activateSubscription",
      "outputs": [],
      "stateMutability": "nonpayable",
      "type": "function"
    },
    {
      "inputs": [
        {
          "internalType": "uint256",
          "name": "serviceId",
          "type": "uint256"
        }
      ],
      "name": "addService",
      "outputs": [],
      "stateMutability": "nonpayable",
      "type": "function"
    },
    {
      "inputs": [
        {
          "internalType": "address",
          "name": "",
          "type": "address"
        }
      ],
      "name": "balanceOf",
      "outputs": [
        {
          "internalType": "uint256",
          "name": "",
          "type": "uint256"
        }
      ],
      "stateMutability": "view",
      "type": "function"
    },
    {
      "inputs": [
        {
          "internalType": "uint256",
          "name": "amount",
          "type": "uint256"
        }
      ],
      "name": "buyTokens",
      "outputs": [],
      "stateMutability": "payable",
      "type": "function"
    },
    {
      "inputs": [],
      "name": "checkAndExpireSubscriptions",
      "outputs": [],
      "stateMutability": "nonpayable",
      "type": "function"
    },
    {
      "inputs": [
        {
          "internalType": "uint256",
          "name": "platformId",
          "type": "uint256"
        }
      ],
      "name": "checkSubscribers",
      "outputs": [
        {
          "internalType": "uint256",
          "name": "",
          "type": "uint256"
        }
      ],
      "stateMutability": "view",
      "type": "function"
    },
    {
      "inputs": [
        {
          "internalType": "uint256",
          "name": "platformId",
          "type": "uint256"
        }
      ],
      "name": "divideCost",
      "outputs": [],
      "stateMutability": "nonpayable",
      "type": "function"
    },
    {
      "inputs": [
        {
          "internalType": "address",
          "name": "user",
          "type": "address"
        },
        {
          "internalType": "uint256",
          "name": "platformId",
          "type": "uint256"
        }
      ],
      "name": "fallbackFunction",
      "outputs": [],
      "stateMutability": "nonpayable",
      "type": "function"
    },
    {
      "inputs": [
        {
          "internalType": "uint256",
          "name": "serviceId",
          "type": "uint256"
        }
      ],
      "name": "getServiceCost",
      "outputs": [
        {
          "internalType": "uint256",
          "name": "",
          "type": "uint256"
        }
      ],
      "stateMutability": "view",
      "type": "function"
    },
    {
      "inputs": [
        {
          "internalType": "address",
          "name": "user",
          "type": "address"
        },
        {
          "internalType": "uint256",
          "name": "serviceId",
          "type": "uint256"
        }
      ],
      "name": "isSubscriptionActive",
      "outputs": [
        {
          "internalType": "bool",
          "name": "",
          "type": "bool"
        }
      ],
      "stateMutability": "view",
      "type": "function"
    },
    {
      "inputs": [],
      "name": "owner",
      "outputs": [
        {
          "internalType": "address",
          "name": "",
          "type": "address"
        }
      ],
      "stateMutability": "view",
      "type": "function"
    },
    {
      "inputs": [
        {
          "internalType": "uint256",
          "name": "",
          "type": "uint256"
        }
      ],
      "name": "platformRequests",
      "outputs": [
        {
          "internalType": "uint256",
          "name": "",
          "type": "uint256"
        }
      ],
      "stateMutability": "view",
      "type": "function"
    },
    {
      "inputs": [
        {
          "internalType": "address",
          "name": "user",
          "type": "address"
        },
        {
          "internalType": "uint256",
          "name": "platformId",
          "type": "uint256"
        }
      ],
      "name": "requestNewPlatform",
      "outputs": [],
      "stateMutability": "nonpayable",
      "type": "function"
    },
    {
      "inputs": [
        {
          "internalType": "uint256",
          "name": "",
          "type": "uint256"
        }
      ],
      "name": "services",
      "outputs": [
        {
          "internalType": "bool",
          "name": "exists",
          "type": "bool"
        },
        {
          "internalType": "uint256",
          "name": "cost",
          "type": "uint256"
        }
      ],
      "stateMutability": "view",
      "type": "function"
    },
    {
      "inputs": [
        {
          "internalType": "uint256",
          "name": "",
          "type": "uint256"
        },
        {
          "internalType": "uint256",
          "name": "",
          "type": "uint256"
        }
      ],
      "name": "subscribersByPlatform",
      "outputs": [
        {
          "internalType": "address",
          "name": "",
          "type": "address"
        }
      ],
      "stateMutability": "view",
      "type": "function"
    },
    {
      "inputs": [],
      "name": "subscriptionDuration",
      "outputs": [
        {
          "internalType": "uint256",
          "name": "",
          "type": "uint256"
        }
      ],
      "stateMutability": "view",
      "type": "function"
    },
    {
      "inputs": [
        {
          "internalType": "address",
          "name": "",
          "type": "address"
        },
        {
          "internalType": "uint256",
          "name": "",
          "type": "uint256"
        }
      ],
      "name": "subscriptions",
      "outputs": [
        {
          "internalType": "bool",
          "name": "active",
          "type": "bool"
        },
        {
          "internalType": "uint256",
          "name": "expirationTime",
          "type": "uint256"
        }
      ],
      "stateMutability": "view",
      "type": "function"
    },
    {
      "inputs": [],
      "name": "tokenPrice",
      "outputs": [
        {
          "internalType": "uint256",
          "name": "",
          "type": "uint256"
        }
      ],
      "stateMutability": "view",
      "type": "function"
    },
    {
      "inputs": [],
      "name": "withdrawFunds",
      "outputs": [],
      "stateMutability": "nonpayable",
      "type": "function"
    },
    {
      "stateMutability": "payable",
      "type": "receive"
    }
  ],
  "bytecode": "0x6080604052662386f26fc1000060015562278d0060025534801561002257600080fd5b50336000806101000a81548173ffffffffffffffffffffffffffffffffffffffff021916908373ffffffffffffffffffffffffffffffffffffffff1602179055506103e8600360003373ffffffffffffffffffffffffffffffffffffffff1673ffffffffffffffffffffffffffffffffffffffff16815260200190815260200160002081905550611aa2806100b86000396000f3fe6080604052600436106101185760003560e01c806369509c89116100a0578063986db01d11610064578063986db01d1461039c578063c22c4f43146103d9578063da38dd1514610417578063e2e8d9dd14610440578063e628341f146104695761011f565b806369509c89146102c757806370a08231146102de5780637a94a6331461031b5780637ff9b596146103465780638da5cb5b146103715761011f565b8063304f90bb116100e7578063304f90bb146101de57806332f93f9b146102075780633610724e146102305780633de4b5fa1461024c578063623da3d1146102895761011f565b80630eb1194014610124578063185059af1461016157806324600fc31461019e5780632974c635146101b55761011f565b3661011f57005b600080fd5b34801561013057600080fd5b5061014b600480360381019061014691906113bb565b6104a6565b60405161015891906113f7565b60405180910390f35b34801561016d57600080fd5b50610188600480360381019061018391906113bb565b6104be565b60405161019591906113f7565b60405180910390f35b3480156101aa57600080fd5b506101b36105cd565b005b3480156101c157600080fd5b506101dc60048036038101906101d79190611470565b610731565b005b3480156101ea57600080fd5b50610205600480360381019061020091906113bb565b610a7f565b005b34801561021357600080fd5b5061022e60048036038101906102299190611470565b610b62565b005b61024a600480360381019061024591906113bb565b610b8f565b005b34801561025857600080fd5b50610273600480360381019061026e9190611470565b610c38565b60405161028091906114cb565b60405180910390f35b34801561029557600080fd5b506102b060048036038101906102ab9190611470565b610ca3565b6040516102be9291906114e6565b60405180910390f35b3480156102d357600080fd5b506102dc610ce1565b005b3480156102ea57600080fd5b506103056004803603810190610300919061150f565b610eeb565b60405161031291906113f7565b60405180910390f35b34801561032757600080fd5b50610330610f03565b60405161033d91906113f7565b60405180910390f35b34801561035257600080fd5b5061035b610f09565b60405161036891906113f7565b60405180910390f35b34801561037d57600080fd5b50610386610f0f565b604051610393919061154b565b60405180910390f35b3480156103a857600080fd5b506103c360048036038101906103be9190611566565b610f33565b6040516103d0919061154b565b60405180910390f35b3480156103e557600080fd5b5061040060048036038101906103fb91906113bb565b610f81565b60405161040e9291906114e6565b60405180910390f35b34801561042357600080fd5b5061043e600480360381019061043991906113bb565b610fb2565b005b34801561044c57600080fd5b5061046760048036038101906104629190611470565b6111be565b005b34801561047557600080fd5b50610490600480360381019061048b91906113bb565b611360565b60405161049d91906113f7565b60405180910390f35b60066020528060005260406000206000915090505481565b6000806000905060005b60076000858152602001908152602001600020805490508110156105c357600060076000868152602001908152602001600020828154811061050d5761050c6115a6565b5b9060005260206000200160009054906101000a900473ffffffffffffffffffffffffffffffffffffffff169050600560008273ffffffffffffffffffffffffffffffffffffffff1673ffffffffffffffffffffffffffffffffffffffff168152602001908152602001600020600086815260200190815260200160002060000160009054906101000a900460ff16156105af5782806105ab90611604565b9350505b5080806105bb90611604565b9150506104c8565b5080915050919050565b60008054906101000a900473ffffffffffffffffffffffffffffffffffffffff1673ffffffffffffffffffffffffffffffffffffffff163373ffffffffffffffffffffffffffffffffffffffff161461065b576040517f08c379a0000000000000000000000000000000000000000000000000000000008152600401610652906116a9565b60405180910390fd5b600047905060008060009054906101000a900473ffffffffffffffffffffffffffffffffffffffff1673ffffffffffffffffffffffffffffffffffffffff16826040516106a7906116fa565b60006040518083038185875af1925050503d80600081146106e4576040519150601f19603f3d011682016040523d82523d6000602084013e6106e9565b606091505b505090508061072d576040517f08c379a00000000000000000000000000000000000000000000000000000000081526004016107249061175b565b60405180910390fd5b5050565b6004600082815260200190815260200160002060000160009054906101000a900460ff16610794576040517f08c379a000000000000000000000000000000000000000000000000000000000815260040161078b906117c7565b60405180910390fd5b6001600360003373ffffffffffffffffffffffffffffffffffffffff1673ffffffffffffffffffffffffffffffffffffffff168152602001908152602001600020541015610817576040517f08c379a000000000000000000000000000000000000000000000000000000000815260040161080e90611833565b60405180910390fd5b6001600360003373ffffffffffffffffffffffffffffffffffffffff1673ffffffffffffffffffffffffffffffffffffffff16815260200190815260200160002060008282546108679190611853565b925050819055506001600560008473ffffffffffffffffffffffffffffffffffffffff1673ffffffffffffffffffffffffffffffffffffffff168152602001908152602001600020600083815260200190815260200160002060000160006101000a81548160ff021916908315150217905550600254426108e89190611887565b600560008473ffffffffffffffffffffffffffffffffffffffff1673ffffffffffffffffffffffffffffffffffffffff1681526020019081526020016000206000838152602001908152602001600020600101819055506000805b60076000848152602001908152602001600020805490508110156109ff578373ffffffffffffffffffffffffffffffffffffffff1660076000858152602001908152602001600020828154811061099d5761099c6115a6565b5b9060005260206000200160009054906101000a900473ffffffffffffffffffffffffffffffffffffffff1673ffffffffffffffffffffffffffffffffffffffff16036109ec57600191506109ff565b80806109f790611604565b915050610943565b5080610a7a5760076000838152602001908152602001600020839080600181540180825580915050600190039060005260206000200160009091909190916101000a81548173ffffffffffffffffffffffffffffffffffffffff021916908373ffffffffffffffffffffffffffffffffffffffff1602179055505b505050565b60008054906101000a900473ffffffffffffffffffffffffffffffffffffffff1673ffffffffffffffffffffffffffffffffffffffff163373ffffffffffffffffffffffffffffffffffffffff1614610b0d576040517f08c379a0000000000000000000000000000000000000000000000000000000008152600401610b04906116a9565b60405180910390fd5b60016004600083815260200190815260200160002060000160006101000a81548160ff021916908315150217905550678ac7230489e80000600460008381526020019081526020016000206001018190555050565b600660008281526020019081526020016000206000815480929190610b8690611604565b91905055505050565b60015481610b9d91906118bb565b341015610bdf576040517f08c379a0000000000000000000000000000000000000000000000000000000008152600401610bd690611949565b60405180910390fd5b80600360003373ffffffffffffffffffffffffffffffffffffffff1673ffffffffffffffffffffffffffffffffffffffff1681526020019081526020016000206000828254610c2e9190611887565b9250508190555050565b6000600560008473ffffffffffffffffffffffffffffffffffffffff1673ffffffffffffffffffffffffffffffffffffffff168152602001908152602001600020600083815260200190815260200160002060000160009054906101000a900460ff16905092915050565b6005602052816000526040600020602052806000526040600020600091509150508060000160009054906101000a900460ff16908060010154905082565b6000600190505b600a8111610ee8576004600082815260200190815260200160002060000160009054906101000a900460ff1615610ed55760005b6007600083815260200190815260200160002080549050811015610ed3576000600760008481526020019081526020016000208281548110610d6157610d606115a6565b5b9060005260206000200160009054906101000a900473ffffffffffffffffffffffffffffffffffffffff169050600560008273ffffffffffffffffffffffffffffffffffffffff1673ffffffffffffffffffffffffffffffffffffffff168152602001908152602001600020600084815260200190815260200160002060000160009054906101000a900460ff168015610e4d575042600560008373ffffffffffffffffffffffffffffffffffffffff1673ffffffffffffffffffffffffffffffffffffffff168152602001908152602001600020600085815260200190815260200160002060010154105b15610ebf576000600560008373ffffffffffffffffffffffffffffffffffffffff1673ffffffffffffffffffffffffffffffffffffffff168152602001908152602001600020600085815260200190815260200160002060000160006101000a81548160ff0219169083151502179055505b508080610ecb90611604565b915050610d1c565b505b8080610ee090611604565b915050610ce8565b50565b60036020528060005260406000206000915090505481565b60025481565b60015481565b60008054906101000a900473ffffffffffffffffffffffffffffffffffffffff1681565b60076020528160005260406000208181548110610f4f57600080fd5b906000526020600020016000915091509054906101000a900473ffffffffffffffffffffffffffffffffffffffff1681565b60046020528060005260406000206000915090508060000160009054906101000a900460ff16908060010154905082565b6004600082815260200190815260200160002060000160009054906101000a900460ff16611015576040517f08c379a000000000000000000000000000000000000000000000000000000000815260040161100c906117c7565b60405180910390fd5b6000805b600760008481526020019081526020016000208054905081101561111457600060076000858152602001908152602001600020828154811061105e5761105d6115a6565b5b9060005260206000200160009054906101000a900473ffffffffffffffffffffffffffffffffffffffff169050600560008273ffffffffffffffffffffffffffffffffffffffff1673ffffffffffffffffffffffffffffffffffffffff168152602001908152602001600020600085815260200190815260200160002060000160009054906101000a900460ff16156111005782806110fc90611604565b9350505b50808061110c90611604565b915050611019565b5060008111611158576040517f08c379a000000000000000000000000000000000000000000000000000000000815260040161114f906119b5565b60405180910390fd5b600081600460008581526020019081526020016000206001015461117c9190611a04565b90507f1a2fb3f0246b1b5aeb97164255506cfc6264a33e135bb3918e8f2bc8f10925218383836040516111b193929190611a35565b60405180910390a1505050565b6001600360008473ffffffffffffffffffffffffffffffffffffffff1673ffffffffffffffffffffffffffffffffffffffff168152602001908152602001600020541015801561122e57506004600082815260200190815260200160002060000160009054906101000a900460ff165b1561135c576001600360008473ffffffffffffffffffffffffffffffffffffffff1673ffffffffffffffffffffffffffffffffffffffff16815260200190815260200160002060008282546112839190611853565b925050819055506001600560008473ffffffffffffffffffffffffffffffffffffffff1673ffffffffffffffffffffffffffffffffffffffff168152602001908152602001600020600083815260200190815260200160002060000160006101000a81548160ff021916908315150217905550600254426113049190611887565b600560008473ffffffffffffffffffffffffffffffffffffffff1673ffffffffffffffffffffffffffffffffffffffff1681526020019081526020016000206000838152602001908152602001600020600101819055505b5050565b600060046000838152602001908152602001600020600101549050919050565b600080fd5b6000819050919050565b61139881611385565b81146113a357600080fd5b50565b6000813590506113b58161138f565b92915050565b6000602082840312156113d1576113d0611380565b5b60006113df848285016113a6565b91505092915050565b6113f181611385565b82525050565b600060208201905061140c60008301846113e8565b92915050565b600073ffffffffffffffffffffffffffffffffffffffff82169050919050565b600061143d82611412565b9050919050565b61144d81611432565b811461145857600080fd5b50565b60008135905061146a81611444565b92915050565b6000806040838503121561148757611486611380565b5b60006114958582860161145b565b92505060206114a6858286016113a6565b9150509250929050565b60008115159050919050565b6114c5816114b0565b82525050565b60006020820190506114e060008301846114bc565b92915050565b60006040820190506114fb60008301856114bc565b61150860208301846113e8565b9392505050565b60006020828403121561152557611524611380565b5b60006115338482850161145b565b91505092915050565b61154581611432565b82525050565b6000602082019050611560600083018461153c565b92915050565b6000806040838503121561157d5761157c611380565b5b600061158b858286016113a6565b925050602061159c858286016113a6565b9150509250929050565b7f4e487b7100000000000000000000000000000000000000000000000000000000600052603260045260246000fd5b7f4e487b7100000000000000000000000000000000000000000000000000000000600052601160045260246000fd5b600061160f82611385565b91507fffffffffffffffffffffffffffffffffffffffffffffffffffffffffffffffff8203611641576116406115d5565b5b600182019050919050565b600082825260208201905092915050565b7f4f776e61626c653a2063616c6c6572206973206e6f7420746865206f776e6572600082015250565b600061169360208361164c565b915061169e8261165d565b602082019050919050565b600060208201905081810360008301526116c281611686565b9050919050565b600081905092915050565b50565b60006116e46000836116c9565b91506116ef826116d4565b600082019050919050565b6000611705826116d7565b9150819050919050565b7f5472616e73666572206661696c65640000000000000000000000000000000000600082015250565b6000611745600f8361164c565b91506117508261170f565b602082019050919050565b6000602082019050818103600083015261177481611738565b9050919050565b7f5365727669636520646f6573206e6f7420657869737400000000000000000000600082015250565b60006117b160168361164c565b91506117bc8261177b565b602082019050919050565b600060208201905081810360008301526117e0816117a4565b9050919050565b7f496e73756666696369656e7420746f6b656e7300000000000000000000000000600082015250565b600061181d60138361164c565b9150611828826117e7565b602082019050919050565b6000602082019050818103600083015261184c81611810565b9050919050565b600061185e82611385565b915061186983611385565b9250828203905081811115611881576118806115d5565b5b92915050565b600061189282611385565b915061189d83611385565b92508282019050808211156118b5576118b46115d5565b5b92915050565b60006118c682611385565b91506118d183611385565b92508282026118df81611385565b915082820484148315176118f6576118f56115d5565b5b5092915050565b7f496e73756666696369656e74207061796d656e74000000000000000000000000600082015250565b600061193360148361164c565b915061193e826118fd565b602082019050919050565b6000602082019050818103600083015261196281611926565b9050919050565b7f4e6f206163746976652073756273637269626572730000000000000000000000600082015250565b600061199f60158361164c565b91506119aa82611969565b602082019050919050565b600060208201905081810360008301526119ce81611992565b9050919050565b7f4e487b7100000000000000000000000000000000000000000000000000000000600052601260045260246000fd5b6000611a0f82611385565b9150611a1a83611385565b925082611a2a57611a296119d5565b5b828204905092915050565b6000606082019050611a4a60008301866113e8565b611a5760208301856113e8565b611a6460408301846113e8565b94935050505056fea2646970667358221220c19f11dccdfe26007cc56ea2bdf206d4d0770e39fd8a59496c3a80c0d667cd7164736f6c63430008140033",
  "linkReferences": {},
  "deployedLinkReferences": {}
}